:020000040800F2
:100000000050002039400008B1240008B324000843
:10001000B5240008B7240008B92400080000000037
:10002000000000000000000000000000BB240008E9
:10003000BD24000800000000BF240008C1240008FF
:10004000814000088140000881400008814000088C
:10005000814000088140000881400008814000087C
:10006000814000088140000881400008814000086C
:10007000814000088140000881400008814000085C
:10008000814000088140000881400008814000084C
:10009000814000088140000881400008814000083C
:1000A000814000088140000881400008814000082C
:1000B000814000088140000881400008814000081C
:1000C000814000088140000881400008814000080C
:1000D00081400008814000088140000881400008FC
:1000E00081400008814000088140000800000000B5
:1000F0000000000000000000000000000000000000
:0C01000000000000000000005FF808F1A3
:1001100010B5054C237833B9044B13B10448AFF341
:1001200000800123237010BDFC01002000000000AE
:100130008498000808B5034B1BB103490348AFF38B
:10014000008008BD00000000000200208498000824
:10015000034613F8012B002AFBD1181A0138704707
:1001600081F0004102E000BF83F0004330B54FEA68
:1001700041044FEA430594EA050F08BF90EA020FD5
:100180001FBF54EA000C55EA020C7FEA645C7FEA68
:10019000655C00F0E2804FEA5454D4EB5555B8BF8B
:1001A0006D420CDD2C4480EA020281EA030382EAFC
:1001B000000083EA010180EA020281EA0303362D8E
:1001C00088BF30BD11F0004F4FEA01314FF4801C61
:1001D0004CEA113102D0404261EB410113F0004F73
:1001E0004FEA03334CEA133302D0524263EB43032A
:1001F00094EA050F00F0A780A4F10104D5F1200EC8
:100200000DDB02FA0EFC22FA05F2801841F1000122
:1002100003FA0EF2801843FA05F359410EE0A5F1F6
:1002200020050EF1200E012A03FA0EFC28BF4CF027
:10023000020C43FA05F3C01851EBE37101F00045DD
:1002400007D54FF0000EDCF1000C7EEB00006EEBEA
:100250000101B1F5801F1BD3B1F5001F0CD3490874
:100260005FEA30004FEA3C0C04F101044FEA4452CB
:1002700012F5800F80F09A80BCF1004F08BF5FEA52
:10028000500C50F1000041EB045141EA050130BD32
:100290005FEA4C0C404141EB0101013C28BFB1F544
:1002A000801FE9D291F0000F04BF01460020B1FA8F
:1002B00081F308BF2033A3F10B03B3F120020CDA62
:1002C0000C3208DD02F1140CC2F10C0201FA0CF040
:1002D00021FA02F10CE002F11402D8BFC2F1200CA5
:1002E00001FA02F120FA0CFCDCBF41EA0C0190405B
:1002F000E41AA2BF01EB0451294330BD6FEA0404A4
:100300001F3C1CDA0C340EDC04F11404C4F120028E
:1003100020FA04F001FA02F340EA030021FA04F3A0
:1003200045EA030130BDC4F10C04C4F1200220FAF7
:1003300002F001FA04F340EA0300294630BD21FA35
:1003400004F0294630BD94F0000F83F4801306BFFB
:1003500081F480110134013D4EE77FEA645C18BFEF
:100360007FEA655C29D094EA050F08BF90EA020F86
:1003700005D054EA000C04BF1946104630BD91EA7E
:10038000030F1EBF0021002030BD5FEA545C05D181
:100390004000494128BF41F0004130BD14F58004C0
:1003A0003CBF01F5801130BD01F0004545F0FE4134
:1003B00041F470014FF0000030BD7FEA645C1ABF69
:1003C000194610467FEA655C1CBF0B46024650EAA0
:1003D000013406BF52EA033591EA030F41F40021CC
:1003E00030BD00BF90F0000F04BF0021704730B552
:1003F0004FF4806404F132044FF000054FF0000127
:1004000050E700BF90F0000F04BF0021704730B5E7
:100410004FF4806404F1320410F0004548BF4042BC
:100420004FF000013EE700BF42004FEAE2014FEA11
:1004300031014FEA02701FBF12F07F4393F07F4FEC
:1004400081F06051704732F07F4208BF704793F0EF
:100450007F4F04BF41F40021704730B54FF4607402
:1004600001F0004521F000411CE700BF50EA010205
:1004700008BF704730B54FF000050AE050EA0102AE
:1004800008BF704730B511F0004502D5404261EB1E
:1004900041014FF4806404F132045FEA915C3FF45F
:1004A000D8AE4FF003025FEADC0C18BF03325FEAFC
:1004B000DC0C18BF033202EBDC02C2F1200300FAAD
:1004C00003FC20FA02F001FA03FE40EA0E0021FAD2
:1004D00002F11444BDE600BF70B54FF0FF0C4CF4C0
:1004E000E06C1CEA11541DBF1CEA135594EA0C0F72
:1004F00095EA0C0F00F0DEF82C4481EA030621EAAD
:100500004C5123EA4C5350EA013518BF52EA0335E7
:1005100041F4801143F4801338D0A0FB02CE4FF099
:100520000005E1FB02E506F00042E0FB03E54FF0C9
:100530000006E1FB03569CF0000F18BF4EF0010EC1
:10054000A4F1FF04B6F5007F64F5407404D25FEABD
:100550004E0E6D4146EB060642EAC62141EA555170
:100560004FEAC52040EA5E504FEACE2EB4F1FD0CB2
:1005700088BFBCF5E06F1ED8BEF1004F08BF5FEA30
:10058000500E50F1000041EB045170BD06F00046E2
:1005900046EA010140EA020081EA0301B4EB5C048F
:1005A000C2BFD4EB0C0541EA045170BD41F4801187
:1005B0004FF0000E013C00F3AB8014F1360FDEBFAC
:1005C000002001F0004170BDC4F10004203C35DA88
:1005D0000C341BDC04F11404C4F1200500FA05F30B
:1005E00020FA04F001FA05F240EA020001F00042AC
:1005F00021F0004110EBD37021FA04F642EB060122
:100600005EEA430E08BF20EAD37070BDC4F10C044B
:10061000C4F1200500FA04F320FA05F001FA04F20F
:1006200040EA020001F0004110EBD37041F10001FB
:100630005EEA430E08BF20EAD37070BDC4F1200506
:1006400000FA05F24EEA020E20FA04F301FA05F26E
:1006500043EA020321FA04F001F0004121FA04F216
:1006600020EA020000EBD3705EEA430E08BF20EAE6
:10067000D37070BD94F0000F0FD101F00046400020
:1006800041EB010111F4801F08BF013CF7D041EAA2
:10069000060195F0000F18BF704703F000465200A6
:1006A00043EB030313F4801F08BF013DF7D043EA77
:1006B0000603704794EA0C0F0CEA135518BF95EA2D
:1006C0000C0F0CD050EA410618BF52EA4306D1D1B4
:1006D00081EA030101F000414FF0000070BD50EAD3
:1006E000410606BF1046194652EA430619D094EA5D
:1006F0000C0F02D150EA013613D195EA0C0F05D147
:1007000052EA03361CBF104619460AD181EA03019A
:1007100001F0004141F0FE4141F470014FF0000052
:1007200070BD41F0FE4141F4780170BD70B54FF0ED
:10073000FF0C4CF4E06C1CEA11541DBF1CEA13556D
:1007400094EA0C0F95EA0C0F00F0A7F8A4EB05044F
:1007500081EA030E52EA03354FEA013100F0888046
:100760004FEA03334FF0805545EA131343EA12630F
:100770004FEA022245EA111545EA10654FEA0026C4
:100780000EF000419D4208BF964244F1FD0404F57D
:10079000407402D25B084FEA3202B61A65EB0305D9
:1007A0005B084FEA32024FF480104FF4002CB6EB96
:1007B000020E75EB030E22BFB61A754640EA0C0016
:1007C0005B084FEA3202B6EB020E75EB030E22BF56
:1007D000B61A754640EA5C005B084FEA3202B6EB97
:1007E000020E75EB030E22BFB61A754640EA9C0056
:1007F0005B084FEA3202B6EB020E75EB030E22BF26
:10080000B61A754640EADC0055EA060E18D04FEAE3
:10081000051545EA16754FEA06164FEAC30343EA83
:1008200052734FEAC2025FEA1C1CC0D111F4801F50
:100830000BD141EA00014FF000004FF0004CB6E749
:1008400011F4801F04BF01430020B4F1FD0C88BFE8
:10085000BCF5E06F3FF6AFAEB5EB030C04BFB6EBF3
:10086000020C5FEA500C50F1000041EB045170BDE6
:100870000EF0004E4EEA113114EB5C04C2BFD4EB13
:100880000C0541EA045170BD41F480114FF0000E97
:10089000013C90E645EA060E8DE60CEA135594EA13
:1008A0000C0F08BF95EA0C0F3FF43BAF94EA0C0F16
:1008B0000AD150EA01347FF434AF95EA0C0F7FF48B
:1008C00025AF104619462CE795EA0C0F06D152EADF
:1008D00003353FF4FDAE1046194622E750EA4106C3
:1008E00018BF52EA43067FF4C5AE50EA41047FF4D4
:1008F0000DAF52EA43057FF4EBAE12E74FF0FF3C39
:1009000006E000BF4FF0010C02E000BF4FF0010C09
:100910004DF804CD4FEA410C7FEA6C5C4FEA430C82
:1009200018BF7FEA6C5C1BD001B050EA410C0CBFD1
:1009300052EA430C91EA030F02BF90EA020F002033
:10094000704710F1000F91EA030F58BF994208BF9A
:1009500090422CBFD8176FEAE37040F00100704757
:100960004FEA410C7FEA6C5C02D150EA013C07D1AE
:100970004FEA430C7FEA6C5CD6D152EA033CD3D0F9
:100980005DF8040B704700BF8446104662468C46F3
:100990001946634600E000BF01B5FFF7B7FF002826
:1009A00048BF10F1000F01BD4DF808EDFFF7F4FF4F
:1009B0000CBF012000205DF808FB00BF4DF808EDDA
:1009C000FFF7EAFF34BF012000205DF808FB00BFFD
:1009D0004DF808EDFFF7E0FF94BF012000205DF81F
:1009E00008FB00BF4DF808EDFFF7CEFF94BF0120D4
:1009F00000205DF808FB00BF4DF808EDFFF7C4FFCD
:100A000034BF012000205DF808FB00BF4FEA410C15
:100A10007FEA6C5C02D150EA013C0AD14FEA430CF8
:100A20007FEA6C5C02D152EA033C02D14FF0000035
:100A300070474FF0010070474FEA410212F5001273
:100A400015D211D56FF47873B3EB625212D94FEA15
:100A5000C12343F0004343EA505311F0004F23FAFF
:100A600002F018BF404270474FF00000704750EA54
:100A7000013005D111F0004008BF6FF00040704711
:100A80004FF00000704700BF4A0011D212F500126B
:100A900011D20DD56FF47873B3EB62520ED44FEAD6
:100AA000C12343F0004343EA505323FA02F0704756
:100AB0004FF00000704750EA013002D14FF0FF3094
:100AC00070474FF0000070474FEA4102B2F1E04337
:100AD00024BFB3F5001CDCF1FE5C0DD901F0004C25
:100AE0004FEAC0024CEA5070B2F1004F40EB830075
:100AF00008BF20F00100704711F0804F21D113F1A1
:100B00003872BCBF01F00040704741F480114FEAD9
:100B10005252C2F11802C2F1200C10FA0CF320FA62
:100B200002F018BF40F001004FEAC1234FEAD3237F
:100B300003FA0CFC40EA0C0023FA02F34FEA4303E9
:100B4000CCE77FEA625307D150EA01331EBF4FF072
:100B5000FE4040F44000704701F0004040F0FE408D
:100B600040F40000704700BF80F0004002E000BF8A
:100B700081F0004142001FBF5FEA410392EA030F88
:100B80007FEA226C7FEA236C6AD04FEA1262D2EBD2
:100B90001363C1BFD218414048404140B8BF5B42D7
:100BA000192B88BF704710F0004F40F4000020F070
:100BB0007F4018BF404211F0004F41F4000121F086
:100BC0007F4118BF494292EA030F3FD0A2F10102D0
:100BD00041FA03FC10EB0C00C3F1200301FA03F10E
:100BE00000F0004302D5494260EB4000B0F5000F31
:100BF00013D3B0F1807F06D340084FEA310102F1F0
:100C00000102FE2A51D2B1F1004F40EBC25008BFA1
:100C100020F0010040EA03007047490040EB00006B
:100C2000013A28BFB0F5000FEDD2B0FA80FCACF16C
:100C3000080CB2EB0C0200FA0CF0AABF00EBC25099
:100C400052421843BCBFD0401843704792F0000F87
:100C500081F4000106BF80F400000132013BB5E7DA
:100C60004FEA41037FEA226C18BF7FEA236C21D050
:100C700092EA030F04D092F0000F08BF08467047B5
:100C800090EA010F1CBF0020704712F07F4F04D183
:100C9000400028BF40F00040704712F100723CBF96
:100CA00000F50000704700F0004343F0FE4040F4C0
:100CB000000070477FEA226216BF08467FEA23637E
:100CC0000146420206BF5FEA412390EA010F40F469
:100CD000800070474FF0000304E000BF10F00043B5
:100CE00048BF40425FEA000C08BF704743F096439C
:100CF00001464FF000001CE050EA010208BF7047B7
:100D00004FF000030AE000BF50EA010208BF70473D
:100D100011F0004302D5404261EB41015FEA010C52
:100D200002BF84460146002043F0B64308BFA3F14A
:100D30008053A3F50003BCFA8CF2083AA3EBC2532C
:100D400010DB01FA02FC634400FA02FCC2F120024B
:100D5000BCF1004F20FA02F243EB020008BF20F082
:100D60000100704702F1200201FA02FCC2F12002E8
:100D700050EA4C0021FA02F243EB020008BF20EADD
:100D8000DC7070474FF0FF0C1CEAD0521EBF1CEA0B
:100D9000D15392EA0C0F93EA0C0F6FD01A4480EAF9
:100DA000010C400218BF5FEA41211ED04FF00063E2
:100DB00043EA501043EA5111A0FB01310CF000400E
:100DC000B1F5000F3EBF490041EAD3715B0040EA34
:100DD000010062F17F02FD2A1DD8B3F1004F40EB04
:100DE000C25008BF20F00100704790F0000F0CF0D7
:100DF000004C08BF49024CEA502040EA51207F3A9B
:100E0000C2BFD2F1FF0340EAC250704740F4000075
:100E10004FF00003013A5DDC12F1190FDCBF00F066
:100E200000407047C2F10002410021FA02F1C2F114
:100E3000200200FA02FC5FEA310040F1000053EAB0
:100E40004C0308BF20EADC70704792F0000F00F0FE
:100E5000004C02BF400010F4000F013AF9D040EA04
:100E60000C0093F0000F01F0004C02BF490011F498
:100E7000000F013BF9D041EA0C018FE70CEAD15396
:100E800092EA0C0F18BF93EA0C0F0AD030F0004C16
:100E900018BF31F0004CD8D180EA010000F00040CA
:100EA000704790F0000F17BF90F0004F084691F088
:100EB000000F91F0004F14D092EA0C0F01D14202C2
:100EC0000FD193EA0C0F03D14B0218BF084608D18B
:100ED00080EA010000F0004040F0FE4040F40000D5
:100EE000704740F0FE4040F4400070474FF0FF0C68
:100EF0001CEAD0521EBF1CEAD15392EA0C0F93EAAF
:100F00000C0F69D0A2EB030280EA010C49024FEA00
:100F1000402037D04FF0805343EA111143EA1013B9
:100F20000CF000408B4238BF5B0042F17D024FF471
:100F3000000C8B4224BF5B1A40EA0C00B3EB510F4C
:100F400024BFA3EB510340EA5C00B3EB910F24BF35
:100F5000A3EB910340EA9C00B3EBD10F24BFA3EBBA
:100F6000D10340EADC001B0118BF5FEA1C1CE0D182
:100F7000FD2A3FF650AF8B4240EBC25008BF20F035
:100F8000010070470CF0004C4CEA50207F32C2BF89
:100F9000D2F1FF0340EAC250704740F400004FF026
:100FA0000003013A37E792F0000F00F0004C02BF57
:100FB000400010F4000F013AF9D040EA0C0093F021
:100FC000000F01F0004C02BF490011F4000F013B7B
:100FD000F9D041EA0C0195E70CEAD15392EA0C0FE3
:100FE00008D142027FF47DAF93EA0C0F7FF470AF1B
:100FF000084676E793EA0C0F04D14B023FF44CAF5E
:1010000008466EE730F0004C18BF31F0004CCAD1F2
:1010100030F000427FF45CAF31F000437FF43CAF2E
:101020005FE700BF7BB972B90029BEBF00204FF057
:10103000004106E008BF00281CBF6FF000414FF0E0
:10104000FF3000F0D9B9ADF1080C6DE904CE0029EC
:1010500009DB002B1ADB00F06DF8DDF804E0DDE9B8
:10106000022304B07047404261EB4101002B1BDBBF
:1010700000F060F8DDF804E0DDE9022304B040424E
:1010800061EB4101524263EB43037047524263EB11
:10109000430300F04FF8DDF804E0DDE9022304B07B
:1010A000404261EB41017047524263EB430300F061
:1010B00041F8DDF804E0DDE9022304B0524263EBBD
:1010C0004303704738B50C460546214628460022A2
:1010D0000023FFF773FC28B928462146BDE83840B5
:1010E00000F00AB8284604F1004100F005F840423B
:1010F00061EB410138BD00BFD0B500220B4B064665
:101100000F46FFF7E9F9FFF7BFFC0446FFF76AF95E
:101110000022074BFFF7E0F902460B4630463946FE
:10112000FFF722F8FFF7B0FC2146D0BD0000F03DEC
:101130000000F0412DE9F047089E0D4604468E461A
:10114000002B40F083808A42174647D9B2FA82F3D7
:101150004BB1C3F1200105FA03FE20FA01F19F40D3
:1011600041EA0E0E9C404FEA1748BEFBF8FC1FFAFE
:1011700087F908FB1CE20CFB09F0210C41EA024252
:1011800090420AD9BA180CF1FF3180F018819042D0
:1011900040F21581ACF1020C3A44121AB2FBF8F09D
:1011A00008FB102200FB09F1A4B244EA0244A14268
:1011B00009D93C1900F1FF3280F00381A14240F2CD
:1011C000008102383C44641A002140EA0C401EB100
:1011D0000022DC40C6E90042BDE8F08702B9FFDE2C
:1011E000B2FA82F3002B4FD18D1A01214FEA124E31
:1011F0001FFA82F8B5FBFEFC0EFB1C5508FB0CF039
:10120000220C42EA0545A84207D97D190CF1FF32AC
:1012100002D2A84200F2E98094462D1AB5FBFEF0F6
:101220000EFB105508FB00F8A4B244EA0544A045A3
:1012300007D93C1900F1FF3202D2A04500F2D98053
:101240001046A4EB080440EA0C40C0E78B4208D9E2
:10125000002E00F0B1800021C6E900050846BDE877
:10126000F087B3FA83F100294BD1AB4202D382421B
:1012700000F2B980841A65EB030301209E46002E1C
:10128000AAD0C6E9004EA7E79F40C3F12002D14093
:101290004FEA174EB1FBFEF01FFA87F80EFB101154
:1012A00024FA02F29D4000FB08FC2A43150C45EA93
:1012B0000145AC4504FA03F409D97D1900F1FF3169
:1012C00080F08F80AC4540F28C8002383D44A5EB25
:1012D0000C05B5FBFEF10EFB115C01FB08F995B2A4
:1012E00045EA0C45A94507D97D1901F1FF3274D2B1
:1012F000A94572D902393D44A5EB090541EA0041EF
:1013000078E7C1F120078B4022FA07FC4CEA030C76
:1013100025FA07F44FEA1C4EB4FBFEF91FFA8CF8CD
:101320000EFB194420FA07F309FB08FA8D401D4310
:101330002B0C43EA0444A24502FA01F200FA01F33D
:1013400009D91CEB040409F1FF3048D2A24546D963
:10135000A9F102096444A4EB0A04B4FBFEF00EFBFD
:10136000104400FB08FAADB245EA0444A24508D98E
:101370001CEB040400F1FF352DD2A2452BD9023815
:10138000644440EA0940A0FB0289A4EB0A044C45EE
:10139000C6464D4619D316D05EB1B3EB0E0264EBD0
:1013A000050404FA07F722FA01F31F43CC40C6E90B
:1013B00000740021BDE8F087314630460CE78C46CA
:1013C000EBE61046FFE64345E6D2B8EB020E69EBCA
:1013D0000C050138E0E72846D3E711468CE7814643
:1013E000B9E7084673E7084649E7ACF1020C3D440B
:1013F00013E702383C4424E7704700BF08B50022D9
:101400002021024801F0A6FA08BD00BF00080140F3
:1014100000B587B08DF817204FF480330293012375
:1014200001930DF1170200920A460146044801F0AB
:10143000A7FE10B907B05DF804FBFFF7DFFFF9E77F
:10144000B006002000B587B00A4600238DF817309B
:101450004FF480330293012301930DF117010091A2
:101460000146064801F03EFF20B99DF8170007B07D
:101470005DF804FBFFF7C2FFF7E700BFB0060020EE
:1014800000B585B04FF4803302930223019300929C
:1014900001230A460146054801F024FF10B905B0B2
:1014A0005DF804FBFFF7AAFFF9E700BFB0060020D4
:1014B00000B585B04FF4803302930323019300926B
:1014C00001230A460146054801F00CFF10B905B09A
:1014D0005DF804FBFFF792FFF9E700BFB0060020BC
:1014E00008B50A460146EC20FFF792FF08BD08B593
:1014F0000146EC20FFF7A6FF08BD08B50A460146E5
:10150000EC20FFF7BDFF08BD08B50A460146EC20F8
:10151000FFF7B6FF08BD10B50C460A460146EC20A1
:10152000FFF7AEFF2288130A43EA0223238010BD8F
:1015300010B50C460A460146EC20FFF7B9FF2368B8
:10154000C3F3074203F47F410A431B0403F47F0300
:101550001343236010BD08B5F320FFF7C8FF00F068
:10156000090008BD70B5654C21468820FFF7C5FF0E
:101570002646634D36F8022B6249284603F05EFC8E
:1015800031468A20FFF7C0FFB4F902205E492846A1
:1015900003F054FC211D8C20FFF7B6FFB4F90420A2
:1015A0005A49284603F04AFCA11D8E20FFF7A5FFEB
:1015B000E2885749284603F041FC04F108019020D5
:1015C000FFF7A2FFB4F908205249284603F036FC81
:1015D00004F10A019220FFF797FFB4F90A204E495F
:1015E000284603F02BFC04F10C019420FFF78CFF3C
:1015F000B4F90C204949284603F020FC04F10E01FF
:101600009620FFF781FFB4F90E204549284603F0E4
:1016100015FC04F110019820FFF776FFB4F91020B3
:101620004049284603F00AFC04F112019A20FFF712
:101630006BFFB4F912203C49284603F0FFFB04F18C
:1016400014019C20FFF760FFB4F9142037492846A5
:1016500003F0F4FB04F116019E20FFF755FFB4F9E7
:1016600016203349284603F0E9FBA120FFF73FFF8E
:10167000024620762F49284603F0E0FB04F11A01C8
:10168000E120FFF741FFB4F91A202B49284603F067
:10169000D5FBE320FFF72BFF02462077274928469A
:1016A00003F0CCFBE420FFF722FF0601E520FFF763
:1016B0001EFF00F00F02324312B2E2832049284697
:1016C00003F0BCFBE620FFF712FF0601E520FFF761
:1016D0000EFFC0F30712324312B222841949284682
:1016E00003F0ACFBE720FFF702FF84F82200227F23
:1016F0001549284603F0A2FB70BD00BF3406002048
:1017000044070020CCC00008DCC00008ECC0000882
:10171000FCC000080CC100081CC100082CC1000856
:101720003CC100084CC100085CC100086CC1000845
:101730007CC100088CC100089CC10008ACC1000835
:10174000BCC10008CCC10008DCC1000810B50446CB
:10175000F520FFF7CCFE00F01F0024F01F0149B276
:101760000143C9B2F520FFF7BBFE10BD10B504461A
:10177000F520FFF7BCFE00F0E30104F01C04214358
:10178000F520FFF7ADFE10BD10B50446F420FFF7BD
:10179000AEFE00F01F0024F01F0149B20143C9B2A0
:1017A000F420FFF79DFE10BD10B50446F420FFF7AE
:1017B0009EFE00F0E30104F01C042143F420FFF737
:1017C0008FFE10BD10B50446F220FFF790FE00F02A
:1017D000F80104F007042143F220FFF781FEF42012
:1017E000FFF785FE0146F420FFF77AFE10BD10B525
:1017F0000446F420FFF77BFE00F0FC0104F0030434
:101800002143F420FFF76CFE10BD000010B582B03C
:1018100001A9FA20FFF78CFE019C114908884200BB
:10182000C2EBD413B1F9022002FB03F2C0EB142087
:1018300000FB00F0030BB1F9040000FB03F0800B88
:1018400000EBD220074B186000EB800080300012C4
:10185000FFF744FA0449FFF749FB02B010BD00BF8F
:1018600034060020580600200000C8422DE9F04F41
:1018700083B0FFF7CBFF01A9F720FFF759FE019BCB
:101880004FEA131C6F4B1A68D317B2F5FA3743F1BE
:10189000FF3607FB06F3A7FB078909EB43096A49F3
:1018A000B1F91040E51708FB05F304FB0933A8FB69
:1018B00004451D44B1F90E20D31702FB06F007FBC7
:1018C0000300A2FB072303444FEA434E4EEAD23EF5
:1018D000500400194EEB050EB1F90C200025D40080
:1018E000281844EB0E04B1F90AA04FEAEA7B08FB82
:1018F0000BF30AFB0933A8FB0A8999444FEA182520
:1019000045EA09654FEA292EB1F90820D31702FBF1
:1019100006F607FB0366A2FB072333441F0347EACF
:1019200012571603AD194EEB070E00354EF5004E5B
:10193000CA88A5FB026702FB0E777A10FB1752EAF2
:1019400003017CD0CCF5801C4FEA5C014FEACC75DA
:10195000281A61EB0401051841EB01062D1841EB33
:101960000606B40144EA9564AF01ED1944EB06069E
:10197000B40044EA9574AF0026463D1841EB0606D4
:10198000B40044EA9574AF00381844EB0101FFF746
:1019900049FB2D4DB5F91620D317440B44EAC14439
:1019A0004E1302FB06F704FB0377A2FB0489B9443C
:1019B00004FB09F306FB0836A4FB08233344560E48
:1019C00046EAC3165F16B5F91420D31702FB01F4DB
:1019D00000FB0344A2FB00232344D40C44EA433419
:1019E0004FEAE34C801947EB0101001941EB0C0170
:1019F000030A43EA01630A12B5F91240E517290107
:101A000041EA147120011B1841EB0202190A41EA54
:101A100002614FF47A7404FB01F403F0FF000B4AF7
:101A200000230B49A0FB0101FFF7FCFA2044FFF75C
:101A300051F90849FFF75AFA03B0BDE8F08F0020CA
:101A4000FAE700BF5806002034060020A0860100F7
:101A5000E1F505000000C84210B582B0FFF7D6FEE0
:101A60000DF10601FD20FFF756FDBDF90620224BC2
:101A70001B68A3F59633214800EA82302049B1F96A
:101A80001E20A0EB0252B1F9200003FB102000F54C
:101A90008040C21391F9220003FB00F08412087FFA
:101AA00003FB00F0C01200F5004000FB04F08012C0
:101AB00000F50013B1F91A0000FB03F000F5005027
:101AC000801300FB02F0C31303FB03F3DB110A7E58
:101AD00002FB03F3A0EB231020EAE070B0F1C85F33
:101AE000A8BF4FF0C8500013FFF7F8F84FF06A5145
:101AF000FFF748F902B010BD5806002000C0FF3FB4
:101B0000340600200000000010B50446FFF7AEFECA
:101B10002146FFF7EBF9FEF787FC09A3D3E9002381
:101B200006F024FF02460B4600200949FEF71CFB85
:101B300005A3D3E90023FEF7CFFCFEF7C5FF10BDD8
:101B4000EBE2361AC05BC83F0000000040A5E5404C
:101B50000000F03F10B582B0012220212A4800F099
:101B6000F9FED020FFF7C3FC044602462749284867
:101B700003F064F9602C02D0FFF740FC3BE0B62193
:101B8000E020FFF7ADFCFFF7E6FC10F0010FFAD103
:101B9000FFF7E8FCA020FFF7D9FD0820FFF7E6FDDE
:101BA0006020FFF7F1FD0820FFF7FEFD0120FFF7A1
:101BB00009FEF420FFF79BFC0446F220FFF797FC98
:101BC00044EA002422461349114803F037F914F07F
:101BD000E00F12D0104A14F01C0F10D00E4B14F46A
:101BE000E06F0ED00C4900910C49094803F026F92A
:101BF0000320FFF7FCFD02B010BD094AEBE7084BDC
:101C0000EDE70749EFE700BF00080140F4C1000815
:101C10004407002008C20008F0C1000824C20008E0
:101C2000ECC1000830B589B00024049405940694F2
:101C300007941D4B9A6942F010029A619A6902F06A
:101C400010020092009A9A6942F020029A619A6901
:101C500002F020020192019A9A6942F008029A6108
:101C60009A6902F008020292029A9A6942F004020A
:101C70009A619B6903F004030393039B0B4D224677
:101C80004FF40051284600F065FE4FF400530493D2
:101C90000123059306940223079304A9284600F024
:101CA00049FD09B030BD00BF0010024000100140E6
:101CB00008B50948094B0360094B43600023836062
:101CC000C3604FF48042026143618361C361036278
:101CD00001F0C6F808BD00BF5C06002000540040BB
:101CE000801A060008B50948094B0360094B436098
:101CF00000238360C3604FF48042026143618361CB
:101D0000C361036201F0ACF808BD00BFB00600205B
:101D100000580040A086010008B50848084B036041
:101D20004FF41653436000238360C36003610C22A9
:101D300042618361C36102F0DFF808BD040700203F
:101D40000038014010B590B0002407E023460A4A4D
:101D50004021684603F03EF80134A4B27F2C09D834
:101D6000610089B20A230122044801F039FC0028ED
:101D7000F2D1EBE710B010BD54C20008B00600204D
:101D800030B591B0002409940B940C940194029402
:101D9000039404940594012206924FF48033079330
:101DA00008940A9202250D950E934FF4E0130F93B9
:101DB00006A801F0EDFC0F230193029503944FF464
:101DC000806304930594294601A801F01FFF11B018
:101DD00030BD00002DE9F043ADF27C4D00F016FC63
:101DE000FFF7CEFFFFF71EFFFFF762FFFFF77AFF57
:101DF000FFF792FF00F0EAF9FFF7A4FFFFF7AAFE52
:101E0000FFF704FDFEF710FB04460D4602460B46A5
:101E100065490DF2144003F011F822462B46634940
:101E20000DF2144003F00AF80DF2144105A803F076
:101E300025F805A8FEF78CF95D4C4FF47A7382B251
:101E400005A9204602F087F8FFF710FD054659491D
:101E5000FFF74CF8FEF7E8FA8046894656492846CF
:101E6000FEF790FFFEF7E0FA06460F462846FEF71B
:101E7000DBFA02460B46CDE90267CDE900894F49FE
:101E80000DF2144002F0DAFF42464B464C490DF287
:101E9000144002F0D3FF0DF2144105A802F0EEFF4A
:101EA00005A8FEF755F94FF47A7382B205A92046CA
:101EB00002F051F832463B4642490DF2144002F01E
:101EC000BDFF0DF2144105A802F0D8FF05A8FEF7EA
:101ED0003FF94FF47A7382B205A9204602F03BF82D
:101EE0004FF480652A46002105A802F0F5F836482F
:101EF000FFF70AFEFEF798FA8046894602460B462F
:101F000032490DF2144002F099FF0DF2144105A878
:101F100002F0B4FF05A8FEF71BF94FF47A7382B202
:101F200005A9204602F017F8FFF796FDFEF77CFAA8
:101F300006460F4602460B4625490DF2144002F0B4
:101F40007DFFCDE9008932463B4622490DF214401F
:101F500002F074FF0DF2144105A802F08FFF05A8EE
:101F6000FEF7F6F84FF47A7382B205A9204601F025
:101F7000F2FF4FF47A7000F06DFB00F01FF90021C2
:101F8000084600F061F80122134905A800F0B0F8F6
:101F90004FF47A7000F05EFB00F0ECF82A46002166
:101FA00005A802F099F82BE75CC2000874C200088B
:101FB0000407002000007A44CA9F443A80C2000807
:101FC000ACC20008B8C2000820607749C4C200084B
:101FD000D8C20008ECC200081000002008B530B9D3
:101FE00000214FF48062034802F076F808BDFF211B
:101FF000F7E700BF200200207F2816D83F2914D819
:10200000104B1B7913B1B2FA82F25209012A0DD09A
:10201000CB0800EBC31001F0070101228A40094BF5
:102020001844017A21EA020101727047CB0800EBE3
:10203000C31001F007018A40024B1844017A114392
:102040000172704718020020014B188059807047B8
:10205000180200202DE9F8439046244B1B880A788B
:1020600013447F2B3EDC81460D46204B5B884A782B
:1020700013443F2B38DC002620E01C4B188859887D
:1020800031442044B8FA88F2520989B280B2FFF78D
:10209000B3FF01342B78A3420FD907FA04F313F4EA
:1020A000004FEAD0114B18885988314420444246E9
:1020B00089B280B2FFF7A0FFEBE701366A78B2423F
:1020C00008D96968A9F1200302FB036331F8137092
:1020D0000024DFE72B78054A11880B44138048461B
:1020E000BDE8F8830020FBE70020F9E71802002094
:1020F00070B504460E461546207848B12A4631464A
:10210000FFF7A8FF03462078834201D10134F3E7AB
:1021100070BD000030B5C3B08DF8081000218CB23E
:102120009C4205D24C1C555C02A90D55E1B2F6E764
:1021300001330A2200929BB202AA0146024800F033
:1021400063FF43B030BD00BF5C06002000B585B022
:102150008DF80C108DF80D200A230093022303AA9A
:102160000146034800F050FF05B05DF804FB00BFD6
:102170005C06002010B500241AE0A4F15002D2B28F
:1021800000217820FFF7E2FF002211467820FFF7B8
:10219000DDFF102200217820FFF7D8FF8023064AB8
:1021A00002EBC41240217820FFF7B4FF0134E4B2FF
:1021B000072CE2D910BD00BF2002002008B5002086
:1021C000FFF70CFFFFF7D6FF08BD000008B544F687
:1021D000206301227821554801F002FA002840F0DE
:1021E000A38040F6C41300E0013B002BFCD1AE22DB
:1021F00000217820FFF7AAFF202200217820FFF796
:10220000A5FF102200217820FFF7A0FFB0220021B7
:102210007820FFF79BFFC82200217820FFF796FF68
:10222000002211467820FFF791FF1022002178202C
:10223000FFF78CFF402200217820FFF787FF8122E3
:1022400000217820FFF782FFFF2200217820FFF78E
:102250007DFFA12200217820FFF778FFA622002130
:102260007820FFF773FFA82200217820FFF76EFF88
:102270003F2200217820FFF769FFA4220021782067
:10228000FFF764FFD32200217820FFF75FFF0022D1
:1022900011467820FFF75AFFD52200217820FFF75A
:1022A00055FFF02200217820FFF750FFD9220021AE
:1022B0007820FFF74BFF222200217820FFF746FF0E
:1022C000DA2200217820FFF741FF12220021782036
:1022D000FFF73CFFDB2200217820FFF737FF2022A9
:1022E00000217820FFF732FF8D2200217820FFF7B0
:1022F0002DFF142200217820FFF728FFAF220021B4
:102300007820FFF723FF2E2200217820FFF71EFF01
:102310000020FFF763FEFFF72DFF054B00221A8018
:102320005A800120587108BD0020FCE75C0600209F
:102330001802002082B00E4B9A6942F001029A61A5
:102340009A6902F001020092009ADA6942F0805222
:10235000DA61DB6903F080530193019B054A5368FE
:1023600023F0E06343F00073536002B0704700BF96
:10237000001002400000014010B588B00023049313
:102380000593069307930368264A934204D0264A8E
:10239000934227D008B010BD244CA36943F0080332
:1023A000A361A36903F008030093009B4FF44073FB
:1023B0000493122305930323079304A91C4800F0F8
:1023C000B9F91C4A536843F0E06343F002035360D9
:1023D000E36943F40013E361E36903F40013019339
:1023E000019BD7E7114CA36943F00803A361A369DC
:1023F00003F008030293029B4FF4406304931223FB
:1024000005930323079304A9094800F093F9E369AE
:1024100043F48003E361E36903F480030393039BC4
:10242000B8E700BF005400400058004000100240D0
:10243000000C01400000014010B586B0002302935B
:102440000393049305930268174B9A4201D006B098
:1024500010BD03F558439A6942F480429A619A6923
:1024600002F480420092009A9A6942F004029A6152
:102470009B6903F004030193019B4FF400730293E3
:102480000223039303230593084C02A9204600F07E
:1024900051F94FF48063029300230393049302A93C
:1024A000204600F047F9D2E700380140000801401B
:1024B0007047FEE7FEE7FEE7FEE7704770477047AC
:1024C00008B500F0B5F808BD0120704708B501F067
:1024D000D9FD162303604FF0FF3008BD08B54FF05B
:1024E000FF31FFF7F3FFFEE770B50C4616460025F7
:1024F000B54207DAAFF30080214601F8010B013540
:102500000C46F5E7304670BD70B50C461646002502
:10251000B54205DA14F8010BAFF300800135F7E797
:10252000304670BD08B503460B4A126842B10A4AEC
:10253000106803446A46934206D8074A136008BDF0
:10254000054A06491160F2E701F09CFD0C23036087
:102550004FF0FF30F3E700BF24060020C007002043
:102560004FF0FF3070474FF400534B60002070472E
:1025700001207047002070470F4B1A6842F001029B
:102580001A6059680D4A0A405A601A6822F084722B
:1025900022F480321A601A6822F480221A605A6883
:1025A00022F4FE025A604FF41F029A60044B4FF06F
:1025B00000629A60704700BF001002400000FFF800
:1025C00000ED00E010B504460E4B18784FF47A7316
:1025D000B3FBF0F30C4A1068B0FBF3F000F094F892
:1025E00068B90F2C01D901200AE0002221464FF0E2
:1025F000FF3000F055F8034B5C60002000E0012044
:1026000010BD00BF1C0000201800002008B5074ABC
:10261000136843F010031360032000F02FF800202C
:10262000FFF7D0FFFFF786FE002008BD0020024024
:10263000034A1168034B1B780B441360704700BFBB
:10264000A80700201C000020014B1868704700BF3D
:10265000A807002038B50446FFF7F6FF0546B4F199
:10266000FF3F02D0044B1B781C44FFF7EDFF401BDB
:10267000A042FAD338BD00BF1C000020074AD3682F
:1026800023F4E0631B041B0C000200F4E06003432E
:1026900043F0BF6343F40033D360704700ED00E0C4
:1026A00030B4174BDB68C3F30223C3F10704042CD7
:1026B00028BF04241D1D062D18D9033B4FF0FF35FC
:1026C00005FA04F421EA0401994005FA03F322EA29
:1026D0000303194300280BDB0901C9B200F1604074
:1026E00000F5614080F8001330BC70470023E5E737
:1026F00000F00F000901C9B2024B1954F4E700BF02
:1027000000ED00E014ED00E00138B0F1807F0AD266
:10271000064B5860064AF02182F82310002098608A
:1027200007221A6070470120704700BF10E000E0E8
:1027300000ED00E0F0B482B000252C46A3E07F4F0E
:10274000BB4210D007D97E4FBB420CD007F5803773
:10275000BB4208D013E0A7F58017BB4203D007F5B2
:102760007027BB4207D18B68002B58D0012B51D06A
:102770004261082503E0A7F58017BB42F3D0FF2E86
:102780004FD88446FF2E4FD8A200DCF800300F2728
:10279000974023EA070305FA02F21343CCF800300E
:1027A0004B6813F0805F6DD0664B9A6942F001026E
:1027B0009A619B6903F001030193019BA208971C96
:1027C000614B53F8273004F00307BF004FF00F0CA4
:1027D0000CFA07FC23EA0C0C5C4B98422AD003F558
:1027E0008063984200F08A8003F58063984200F08D
:1027F000878003F5806398421AD004231BE0CD68DC
:10280000BDE7CD680435BAE7CD680835B7E7CD68D0
:102810000C35B4E702610825B1E70025AFE70425D0
:10282000ADE700F1040CADE7A4F108029200ACE7BB
:10283000032300E00023BB4043EA0C030232424F73
:1028400047F822304B6813F4803F5BD0404A13684E
:10285000334313604B6813F4003F59D03C4A53682C
:10286000334353604B6813F4801F57D0384A936842
:10287000334393604B6813F4001F55D0344AD36838
:102880001E43D66001340B6833FA04F252D00122A1
:10289000A24003EA020632EA0303F3D14B68122B8B
:1028A0003FF64DAF122B3FF66AAF01A757F823F062
:1028B00067270008FF270008092800081B280008D0
:1028C0007F2700087F2700087F2700087F27000850
:1028D0007F2700087F2700087F2700087F27000840
:1028E0007F2700087F2700087F2700087F27000830
:1028F0007F270008032800080F28000801239AE713
:10290000022398E7124A136823EA06031360A1E73B
:102910000F4A536823EA06035360A3E70C4A9368FF
:1029200023EA06039360A5E7094AD36823EA06066B
:10293000D660A7E702B0F0BC704700BF00002210CD
:10294000000031100010024000000140000801406A
:10295000000401400AB10161704709040161704738
:1029600003685A6912F4806F01D1002070476FF438
:1029700080625A6100230363202280F83D2080F8A2
:102980003E30026C42F00402026480F83C300120C8
:1029900070472DE9F04107460D4690461E4622E05D
:1029A000FFF752FE069BC01AB04200D8DEB90023E2
:1029B0003B63202287F83D2087F83E303A6C42F096
:1029C00020023A6487F83C3001201AE03B689C6999
:1029D00025EA0404A4B2B4FA84F46409A0450FD132
:1029E000B6F1FF3FDCD1C5F30743012BEED13B68C5
:1029F0005C6925EA0404A4B2B4FA84F46409EDE73E
:102A00000020BDE8F0812DE9F04105460E4617464D
:102A100098463DE01A6842F400721A602B686FF421
:102A200080625A6100232B63202285F83D2085F8BF
:102A30003E302A6C42F004022A6485F83C300120C2
:102A400034E0FFF701FEA0EB0800B84200D8FFB960
:102A500000232B63202285F83D2085F83E302A6C28
:102A600042F020022A6485F83C3001201EE02B68E9
:102A70009C6926EA0404A4B2003C18BF0124A4B156
:102A80002B685A6912F4806FC4D1B7F1FF3FD8D1D7
:102A9000C6F30743012BEAD12B685C6926EA0404DC
:102AA000A4B2003C18BF0124E9E70020BDE8F08192
:102AB000F0B583B004460D4616461F46C36A082B80
:102AC0000DD0012B0BD013F5803F08D0036B122BD8
:102AD0000AD10268136843F48073136004E022682B
:102AE000136843F4807313600097334600224FF05D
:102AF00001112046FFF74DFF10BB2369B3F5804F4E
:102B00000CD1236805F0FE051D613B4632460F4996
:102B10002046FFF778FFB8B903B0F0BDEB1122688B
:102B200003F0060343F0F00313613B4632460849C5
:102B30002046FFF768FF28B92368EDB21D61E4E77E
:102B40000120E9E70120E7E70120E5E702000100B5
:102B50000800010070B504460D46164623685B69FF
:102B600013F0800F1CD12046FFF7FAFED0B9B5F163
:102B7000FF3FF3D0FFF768FD801BA84201D8002D6E
:102B8000ECD100232363202284F83D2084F83E30DA
:102B9000226C42F02002226484F83C30012000E0E4
:102BA000002070BD0120FCE72DE9F04385B004460C
:102BB0000D46914698460C9E0D9F0368196841F496
:102BC000807119600097334600224FF00111FFF722
:102BD000E0FE18B1012005B0BDE8F083236805F0E0
:102BE000FE051D613B46324620492046FFF70BFF9C
:102BF00008B10120EFE70023039323685A69039289
:102C00009B690393039B3A4631462046FFF7A2FF98
:102C100038B9B8F1010F0FD123685FFA89F61E6148
:102C2000D9E7236C042B01D00120D4E72268136874
:102C300043F400731360F7E723684FEA19221A611F
:102C40003A4631462046FFF785FF20B923685FFAF0
:102C500089F61E61BFE7236C042B01D00120BAE77F
:102C60002268136843F400731360F7E70200010061
:102C70002DE9F04784B004460D4616469946DDF826
:102C800030800D9F0268136843F48063136003680B
:102C9000196841F4807119600097434600224FF093
:102CA0000111FFF776FE18B1012004B0BDE8F087EE
:102CB0005FFA85FA236805F0FE051D613B46424632
:102CC00036492046FFF79FFE08B10120EDE70023BB
:102CD000039323685A6903929B690393039B3A46C3
:102CE00041462046FFF736FF80B9B9F1010F18D1F0
:102CF0002368F6B21E613A4641462046FFF72AFF96
:102D000068B3236C042B24D00120CEE7236C042B62
:102D100001D00120C9E72268136843F400731360EF
:102D2000F7E72368320A1A613A4641462046FFF720
:102D300011FF18B92368F6B21E61DCE7236C042B7F
:102D400001D00120B1E72268136843F400731360D7
:102D5000F7E72268136843F400731360D4E722682E
:102D6000136843F4807313600097434600224FF0CA
:102D700001112046FFF70DFE08B1012095E72268FA
:102D80004AF0010313613B46424604492046FFF7DF
:102D90003AFE002889D0012087E700BF0200010029
:102DA00070B504460D46164623685B6913F0040FA0
:102DB0001CD12046FFF7D4FDD0B9B5F1FF3FF3D0C9
:102DC000FFF742FC801BA84201D8002DECD1002364
:102DD0002363202284F83D2084F83E30226C42F0A8
:102DE0002002226484F83C30012000E0002070BD05
:102DF0000120FCE770B505460C4616462B6859695C
:102E000011F0400F29D1596911F0100F15D1FFF7BA
:102E10001BFC801BA04201D8002CEFD100232B63A8
:102E2000202285F83D2085F83E302A6C42F02002B1
:102E30002A6485F83C30012070BD6FF010025A61A1
:102E400000232B63202285F83D2085F83E302A6C34
:102E50002A6485F83C300120EEE70020ECE7000012
:102E6000002800F0C280F8B5044690F83D30002BF1
:102E70006DD0242384F83D302268136823F00103C9
:102E8000136000F07FFF62685A4B9A4264D85A4B35
:102E900098428CBF00230123002B40F0A880574D9F
:102EA000A5FB0035AF0C2668716821F03F0141EAAF
:102EB0009541716021680B6A23F03F0365684D4AB4
:102EC00095424FD87A1C13430B622568E96921F4B7
:102ED0004F4121F0FF016368464A93424CD80138C4
:102EE0005B00B0FBF3F0013040F6FC73184278D081
:102EF000C0F30B030B43EB6121680B6823F0C003A5
:102F0000E269206A024313430B6021688B6823F453
:102F1000034323F0FF032269E068024313438B60FD
:102F20002168CB6823F0FF036269A0690243134361
:102F3000CB602268136843F0010313600020206413
:102F4000202384F83D30206384F83E00F8BD80F8EB
:102F50003C30FFF711FA8CE7294B98428CBF0023D5
:102F6000012399E74FF4967202FB07F2254DA5FB6A
:102F7000025292090132A6E7A268BAB9461E03EBD3
:102F80004307B6FBF7F60136C6F30B06B6FA86F62C
:102F9000760946BBC2B9421E03EB4303B2FBF3F210
:102FA0000132C2F30B0242F40043A3E7461E03EBD7
:102FB000830707EB8707B6FBF7F60136C6F30B0668
:102FC000B6FA86F67609E4E7421E03EB830303EBC9
:102FD0008303B2FBF3F20132C2F30B0242F440432B
:102FE00088E7042386E7012384E701207047012056
:102FF000ACE700BFA08601007F841E0083DE1B4378
:10300000FF083D00D34D62102DE9F04385B0044622
:103010000F46914698460C9EFFF716FB054694F81E
:103020003D00C0B2202804D00227384605B0BDE8D4
:10303000F0830095192301224F492046FFF7A9FC90
:10304000002840F0928094F83C30012B00F08F80F3
:10305000012384F83C3023681A6812F0010F03D171
:103060001A6842F001021A602268136823F40063B0
:103070001360212384F83D30102384F83E30002370
:103080002364C4F82490A4F82A80638D23853B4BE5
:10309000E3622B46324639462046FFF709FD0746D4
:1030A000002866D10023039323685A6903929B6921
:1030B0000393039B11E0236C042B01D00127B4E799
:1030C0002268136843F400731360F7E72A46314619
:1030D0002046FFF765FE00282ED1238D002B36D029
:1030E0002A4631462046FFF735FD0028E3D1626AC3
:1030F000236812781A61616A4B1C6362638D9BB20C
:10310000013B9BB26385238D013B9BB223852268E3
:10311000506910F0040FD9D0002BD7D04B78136131
:10312000636A01336362638D9BB2013B9BB263852B
:10313000238D013B2385C9E7236C042B01D0012794
:1031400073E72268136843F400731360F7E722689B
:10315000136843F400731360202384F83D30002388
:1031600084F83E3084F83C305FE702275DE70227B1
:103170005BE7012759E700BF020010000000FFFFD6
:103180002DE9F04383B004460F46904699460C9EC5
:10319000FFF75AFA054694F83D00C0B2202803D044
:1031A000022003B0BDE8F0830095192301224B49AA
:1031B0002046FFF7EEFB002840F0898094F83C3071
:1031C000012B00F08680012384F83C3023681A68C4
:1031D00012F0010F03D11A6842F001021A6022684E
:1031E000136823F400631360212384F83D304023E7
:1031F00084F83E30002323640A9B6362BDF82C30C0
:103200006385638D2385364BE362019500964B46BB
:10321000424639462046FFF7C7FC00285BD1238D84
:10322000002B35D02A4631462046FFF793FC20BBC1
:10323000626A236812781A61616A4B1C6362228D8C
:10324000013A92B22285638D9BB2013B9BB26385AA
:103250002368586910F0040FE1D0002ADFD04A78C3
:103260001A61636A01336362238D013B2385638D99
:103270009BB2013B9BB26385D1E7236C042B01D049
:1032800001208EE72268136843F400731360F7E7A8
:103290002A4631462046FFF783FD50B1236C042BAC
:1032A00001D001207DE72268136843F400731360A6
:1032B000F7E72268136843F400731360202384F84F
:1032C0003D30002384F83E3084F83C3069E702202A
:1032D00067E7022065E7012063E700BF02001000F6
:1032E0000000FFFF2DE9F04387B004460F469046EB
:1032F0009946109EFFF7A8F9054694F83D00C0B224
:10330000202804D00227384607B0BDE8F083009596
:10331000192301228F492046FFF73BFB002840F08C
:10332000518194F83C30012B00F04E81012384F848
:103330003C3023681A6812F0010F03D11A6842F07A
:1033400001021A602268136823F4006313602223C9
:1033500084F83D30402384F83E30002323640E9BE4
:103360006362BDF83C306385638D23857A4BE362ED
:10337000019500964B46424639462046FFF778FCB9
:103380000746002840F02281238D5BB90293236811
:103390005A6902929A690292029A1A6842F4007279
:1033A0001A60A5E0012B0FD0022B21D022681368F0
:1033B00043F4806313600023059323685A690592E0
:1033C0009B690593059B93E02268136823F480634F
:1033D000136072B60023039323685A6903929A69B3
:1033E0000392039A1A6842F400721A6062B67FE090
:1033F0002268136843F40063136072B600230493D9
:1034000023685A6904929A690492049A1A6822F409
:1034100080621A6062B66BE02A4631462046FFF7AA
:10342000E9FC002840F0D48023681A69636A1A70A6
:10343000636A01336362238D013B2385638D9BB2F5
:10344000013B9BB2638553E000953346002243491C
:103450002046FFF79EFA002840F0BC8072B6226832
:10346000136843F40073136023681A69636A1A705F
:10347000636A01336362238D013B2385638D9BB2B5
:10348000013B9BB2638562B623681A69636A1A704E
:10349000636A01336362238D013B2385638D9BB295
:1034A000013B9BB2638523E02268136843F40073F9
:1034B000136023681A69636A1A70636A013363626E
:1034C000238D013B2385638D9BB2013B9BB26385BA
:1034D00062B623681A69636A1A70636A01336362A9
:1034E000238D013B2385638D9BB2013B9BB263859A
:1034F000238D002B5DD0032B32D8012B8CD0022BD7
:10350000A2D000953346002214492046FFF741FA25
:10351000002861D12268136823F48063136072B6B7
:1035200023681A69636A1A70636A01336362238DC0
:10353000013B2385638D9BB2013B9BB26385009564
:103540003346002205492046FFF723FA0028ABD076
:103550000127D8E6020010000000FFFF0400010070
:103560002A4631462046FFF745FC002836D123681D
:103570001A69636A1A70626A531C6362238D013B85
:103580002385638D9BB2013B9BB263852368596998
:1035900011F0040FACD01B695370636A013363628E
:1035A000238D013B2385638D9BB2013B9BB26385D9
:1035B0009EE7202384F83D30002384F83E3084F8D1
:1035C0003C30A0E602279EE602279CE601279AE609
:1035D000012798E6012796E6012794E6012792E65F
:1035E0002DE9F04784B00546894692461E46FFF70E
:1035F0002BF895F83D30DBB2202B03D0022004B02D
:10360000BDE8F08707460090192301225449284657
:10361000FFF7BFF9002840F0988095F83C30012B67
:1036200000F09580012385F83C302B681A6812F071
:10363000010F03D11A6842F001021A602A68136868
:1036400023F400631360242385F83D3000232B64AA
:10365000A3F58033EB624FF0010835E0A02385F835
:103660003D302A685369C3F340035269C2F3802294
:1036700095F83D40E4B2A02C09D043B93AB9FEF721
:10368000E3FFC01BB042E9D8002EEAD1E6E72023D1
:1036900085F83D302B685A6912F0020F32D11A6852
:1036A00042F400721A602B686FF480625A610097CE
:1036B000192301222A492846FFF76BF900284CD12B
:1036C00008F10108D04538D22A68136843F48073A2
:1036D00013600097334600224FF001112846FFF790
:1036E00058F9002835D12B6809F0FE021A61FEF75F
:1036F000ABFF07462A685369C3F340035269C2F31C
:103700008022B5E71A6842F400721A60002303931E
:103710002B685A6903929B690393039B00971923B3
:1037200001220F492846FFF734F9A0B9202385F874
:103730003D30002385F83C3061E7202385F83D309B
:10374000002385F83C30012059E7022057E702208A
:1037500055E7012053E7012051E701204FE700BF63
:103760000200100082B0084B1B68084AA2FB03232A
:103770005B0A00FB03F3019300BF019B5A1E0192F9
:10378000002BF9D102B0704718000020D34D621011
:10379000002800F0F18170B582B00446036813F090
:1037A000010F2CD0AA4B5B6803F00C03042B1DD037
:1037B000A74B5B6803F00C03082B12D06368B3F5CA
:1037C000803F41D0002B55D103F1804303F50433F2
:1037D0001A6822F480321A601A6822F480221A6071
:1037E00037E09B4B5B6813F4803FE7D0984B1B6836
:1037F00013F4003F03D06368002B00F0BF812368FF
:1038000013F0020F75D0924B5B6813F00C0F5FD072
:103810008F4B5B6803F00C03082B54D02369002BFB
:1038200000F089808B4B01221A60FEF70DFF0546E0
:10383000874B1B6813F0020F74D1FEF705FF401B86
:103840000228F5D903209EE1814A136843F48033AE
:103850001360636843B3FEF7F7FE05467C4B1B68B5
:1038600013F4003FCBD1FEF7EFFE401B6428F5D9DF
:10387000032088E1B3F5A02F09D0754B1A6822F414
:1038800080321A601A6822F480221A60E1E703F19C
:103890008043A3F53C331A6842F480221A601A6808
:1038A00042F480321A60D4E7FEF7CEFE0546684B3C
:1038B0001B6813F4003FA2D0FEF7C6FE401B64282D
:1038C000F5D903205FE1624B5B6813F4803FA5D11B
:1038D0005F4B1B6813F0020F03D02369012B40F0EC
:1038E0004F815B4A136823F0F803616943EAC1031F
:1038F0001360236813F0080F32D0A369002B45D062
:10390000554B01221A60FEF79FFE0546504B5B6A3D
:1039100013F0020F21D1FEF797FE401B0228F5D9C4
:10392000032030E14A4A136823F0F803616943EA4F
:10393000C1031360DDE7474B00221A60FEF784FEE7
:103940000546434B1B6813F0020FD2D0FEF77CFEF6
:10395000401B0228F5D9032015E10120FFF702FFE3
:10396000236813F0040F00F09780394BDB6913F0E4
:10397000805F1DD1364BDA6942F08052DA61DB6933
:1039800003F080530193019B012512E0324B00228A
:103990001A60FEF759FE05462D4B5B6A13F0020FC5
:1039A000DED0FEF751FE401B0228F5D90320EAE0E5
:1039B00000252A4B1B6813F4807F11D0E368012B8C
:1039C00022D0002B38D103F1804303F504331A6A67
:1039D00022F001021A621A6A22F004021A6218E046
:1039E0001E4A136843F480731360FEF72DFE0646EB
:1039F0001A4B1B6813F4807FE0D1FEF725FE801B75
:103A00006428F5D90320BEE0114A136A43F001038C
:103A10001362E36873B3FEF717FE06460C4B1B6A8E
:103A200013F0020F37D1FEF70FFE801B41F28833EF
:103A30009842F3D90320A6E0052B11D0044B1A6A53
:103A400022F001021A621A6A22F004021A62E0E706
:103A500000100240000042428004424200700040D8
:103A60004D4B1A6A42F004021A621A6A42F00102CD
:103A70001A62CEE7FEF7E8FD0646474B1B6A13F0D5
:103A8000020F08D0FEF7E0FD801B41F28833984218
:103A9000F3D9032077E0E5B9E369002B72D03E4A01
:103AA000526802F00C02082A56D0022B17D03B4B6A
:103AB00000221A60FEF7C8FD0446374B1B6813F05E
:103AC000007F47D0FEF7C0FD001B0228F5D9032078
:103AD00059E0314AD36923F08053D361DCE72F4B9F
:103AE00000221A60FEF7B0FD05462B4B1B6813F051
:103AF000007F06D0FEF7A8FD401B0228F5D9032061
:103B000041E0236AB3F5803F1AD023494B6823F480
:103B10007413226A606A024313434B601F4B0122F5
:103B20001A60FEF791FD04461B4B1B6813F0007FE3
:103B30000ED1FEF789FD001B0228F5D9032022E0F3
:103B4000154A536823F40033A1680B435360DCE744
:103B5000002018E0002016E0012B16D00E4B5B6809
:103B600003F48031226A914211D103F47013626A26
:103B700093420ED1002006E001207047012002E0B0
:103B8000012000E0002002B070BD0120FBE7012011
:103B9000F9E70120F7E700BF001002406000424251
:103BA00086B0164B0FCB0DF1180C0CE90F0040F24C
:103BB0000123ADF80430124B5B6803F00C02082AB5
:103BC00002D0104806B07047C3F38342624412F833
:103BD000102C13F4803F0CD0094B5B68C3F34043B7
:103BE000634413F8143C074800FB02F0B0FBF3F009
:103BF000E8E7054800FB02F0E4E700BF00C3000867
:103C00000010024000127A0000093D00002800F078
:103C1000A08070B50D460446524B1B6803F00703A5
:103C20008B420BD24F4A136823F007030B431360F8
:103C3000136803F007038B4240F08D80236813F074
:103C4000020F17D013F0040F04D0474A536843F40F
:103C5000E0635360236813F0080F04D0424A5368AE
:103C600043F460535360404A536823F0F003A16863
:103C70000B435360236813F0010F31D06368012BAD
:103C800020D0022B25D0384A126812F0020F64D0DF
:103C900035494A6822F0030213434B60FEF7D4FC17
:103CA0000646314B5B6803F00C036268B3EB820F8E
:103CB00016D0FEF7C9FC801B41F288339842F0D938
:103CC000032045E0284A126812F4003FE0D10120A9
:103CD0003EE0254A126812F0007FD9D1012037E07A
:103CE000204B1B6803F00703AB420AD91D4A136837
:103CF00023F007032B431360136803F00703AB4261
:103D00002DD1236813F0040F06D0174A536823F40B
:103D1000E063E1680B435360236813F0080F07D09A
:103D2000114A536823F46053216943EAC103536085
:103D3000FFF736FF0C4B5B68C3F303130B4AD35CEE
:103D4000D8400B4B18600B4B1868FEF73BFC00206B
:103D500070BD012070470120FAE70120F8E701203B
:103D6000F6E700BF0020024000100240B4C0000887
:103D70001800002020000020014B1868704700BF89
:103D80001800002008B5FFF7F7FF044B5B68C3F38A
:103D90000223034AD35CD84008BD00BF0010024094
:103DA000C4C0000808B5FFF7E7FF044B5B68C3F326
:103DB000C223034AD35CD84008BD00BF00100240B4
:103DC000C4C0000838B504460268136923F44053A0
:103DD000C1680B43136183680269134342691A4344
:103DE0000168CB6823F4B05323F00C031343CB607A
:103DF0000268536923F4407381690B43536102687D
:103E0000214B9A421FD0FFF7BDFF00EB800000EB73
:103E1000800063689B00B0FBF3F01C4DA5FB0032F3
:103E20005109642303FB11031B013233A5FB032358
:103E30005B0903F0F00202EB011203F00F032168AB
:103E400013448B6038BDFFF7ADFF00EB800000EB43
:103E5000800063689B00B0FBF3F00C4DA5FB0032C3
:103E60005109642303FB11031B013233A5FB032318
:103E70005B0903F0F00202EB011203F00F0321686B
:103E800013448B60DEE700BF003801401F85EB5113
:103E90002DE9F84305460F4616469946DDF8208081
:103EA0002C68246837EA04030CBF01240024B442C0
:103EB0001FD1B8F1FF3FF3D0B8F1000F05D0FEF7E6
:103EC000C3FBA0EB09004045EAD92A68D36823F474
:103ED000D073D3602A68536923F001035361202310
:103EE00085F8393085F83A30002385F838300320DA
:103EF00000E00020BDE8F88358B310B5044690F800
:103F000039300BB3242384F839302268D36823F482
:103F10000053D3602046FFF755FF2268136923F44E
:103F2000904313612268536923F02A035361226886
:103F3000D36843F40053D3600020E063202384F867
:103F4000393084F83A3010BD80F83830FEF774FA12
:103F5000D8E7012070472DE9F04182B01E4690F865
:103F60003930DBB2202B58D104460D46904600294B
:103F700057D0002A57D090F83830012B55D0012364
:103F800080F838300023C363212380F83930FEF7EE
:103F90005BFB0746A4F82480A4F8268017E000966F
:103FA0003B46002280212046FFF772FF00283ED1C9
:103FB0002B882268C3F30803536023690BB90235C9
:103FC00005E0013503E015F8012B23685A60E38C06
:103FD0009BB29BB1E28C92B2013A92B2E284A368A6
:103FE000B3F5805FDBD000963B460022802120465F
:103FF000FFF74EFF0028E6D003200FE000963B4677
:10400000002240212046FFF743FF90B9202384F887
:104010003930002384F8383000E0022002B0BDE8D7
:10402000F0810120FAE70120F8E70220F6E70320FB
:10403000F4E70320F2E70000002103E00B4B5B589C
:10404000435004310A480B4B42189A42F6D30A4AAD
:1040500002E0002342F8043B084B9A42F9D3FEF7F2
:104060008BFA00F015F8FDF7B5FE704720C8000880
:1040700000000020FC010020FC010020BC07002003
:10408000FEE70000014B1868704700BF24000020C5
:1040900070B500260C4D0D4C641BA410A64209D12E
:1040A00005F0F0FB00260A4D0A4C641BA410A64242
:1040B00005D170BD55F8043B98470136EEE755F839
:1040C000043B98470136F2E718C8000818C80008F2
:1040D00018C800081CC8000803460244934200D1D7
:1040E000704703F8011BF9E7002B2DE9F0471F4645
:1040F000BBBF03F100431F4600232D2388B01446A5
:10410000129A109D1370149BDDF84CA023F0200828
:10411000B8F1460F05D0B8F1450F00D101350223A3
:1041200000E0032307AA049206AACDE902A2CDE982
:10413000003522463B4601F0DBFDB8F1470F06464D
:1041400002D1119BDB0722D5B8F1460F06EB05091A
:1041500010D13378302B0AD1002200232046394673
:10416000FCF722FC18B9C5F10105CAF80050DAF8CD
:10417000003099440022002320463946FCF714FC05
:1041800008B1CDF81C903022079B4B4507D3304631
:10419000079B159A9B1B136008B0BDE8F087591C5C
:1041A00007911A70F0E70346F7B5002903F8022BD0
:1041B000B6BF2D222B224942092942702BDD0DF179
:1041C0000704A4460A2791FBF7F60A46A64607FB12
:1041D0001615632A05F13005314604F1FF340EF857
:1041E000015CF0DC3031AEF1020504F8011C294617
:1041F000441C61450AD30DF10902A2EB0E0265458C
:1042000088BF00221344181A03B0F0BD11F8012B27
:1042100004F8012FEDE7302330318370C170031DA6
:10422000F1E700002DE9F04F91B00C46DDF8688011
:1042300016461F46054602F0AFFE0368184609936E
:10424000FBF786FF00230E93D8F800300A9007335F
:1042500023F0070303F1080294F81890D4F800B093
:10426000C8F80020D3E90023C4E91223D4E9128A54
:104270002AF000430B934FF0FF3240469C4B0B99C2
:10428000FCF7C4FB70BB4FF0FF324046984B0B99D4
:10429000FCF79EFB30BB0022002340465146FCF752
:1042A0008DFB10B12D2384F84330924B9248B9F125
:1042B000470F94BF9846804603234FF0000A2361BE
:1042C0002BF00403236033462146284600970FAAAB
:1042D00000F0D4F9013040F090804FF0FF3011B081
:1042E000BDE8F08F4246534640465146FCF78EFBF0
:1042F00048B1BAF1000FB8BF2D238048B8BF84F889
:1043000043307F4BD3E7636809F0DF015A1C42D189
:1043100006236360002206920EAACDE904920DAA3C
:104320004BF4806303920DF13302CDE90132236037
:10433000636842460093284653460B91FFF7D4FE2C
:104340000B99804647290D9908D1C81C02DB636888
:10435000994240DDA9F102095FFA89F9B9F1650FC7
:104360001FD84A46013904F150000D91FFF71BFF99
:104370000E9A82461318012A236102DC2268D207B2
:1043800001D5013323619DF83330002B9BD02D23C1
:1043900084F8433097E74729BCD1002BBAD10123D9
:1043A000B7E7B9F1660F18D1002963680BDD216109
:1043B00013B92268D00702D501330B4423614FF0B3
:1043C000000AA165DFE713B92268D20701D50233DD
:1043D000F4E70123F2E74FF067090E9B994205DBF2
:1043E00023682161D807EAD54B1CE7E70029CCBF39
:1043F0000122C1F102021344E0E723685A0507D401
:104400002369424631462846B84701302BD164E73C
:10441000B9F1650F40F2DD80D4E9120100220023DA
:10442000FCF7C2FA002833D0012331462846354A2A
:10443000B84701303FF451AFDDE90D239A4202DB6A
:104440002368D8070FD5DDE9092331462846B84748
:1044500001303FF442AF4FF0000804F11A090E9BFF
:10446000013B434509DC23689B0700F10281E068BA
:104470000F9B9842B8BF184631E701234A463146A0
:104480002846B84701303FF428AF08F10108E6E7B5
:104490000D9B002B38DC012331462846194AB847CA
:1044A00001303FF41AAFDDE90D23134302D1236835
:1044B000D907D8D5DDE9092331462846B847013068
:1044C0003FF40BAF4FF0000904F11A0A0D9B5B4259
:1044D0004B4501DC0E9B94E70123524631462846AA
:1044E000B84701303FF4F9AE09F10109EEE700BF2A
:1044F000FFFFEF7F18C300081CC3000824C3000897
:1045000020C3000828C300080E9AA36D9A42A8BFD2
:104510001A46002A914637DC4FF0000B29EAE97968
:1045200004F11A02D4F858A0AAEB09035B4533DC66
:10453000DDE90D239A423BDB2368DA0738D40E9A73
:104540000D99A2EB0A03A2EB01099945A8BF994670
:10455000B9F1000F34DC4FF0000829EAE97904F1E1
:104560001A0ADDE90D239B1AA3EB090343457FF7E4
:104570007AAF0123524631462846B84701303FF40E
:10458000ACAE08F10108ECE7134631464246284636
:10459000B8470130C0D1A0E60123314628460B922E
:1045A000B84701303FF499AE0B9A0BF1010BB9E714
:1045B0003146DDE909232846B8470130BFD18CE6F2
:1045C0004B463146284608EB0A02B8470130C2D1B3
:1045D00083E60E9A012A01DCDB0737D50123424628
:1045E00031462846B84701303FF477AEDDE909236C
:1045F00031462846B84701303FF46FAED4E9120186
:1046000000220023FCF7D0F9D8B90E9B08F1010273
:10461000013B31462846B84701300ED15DE6012303
:104620004A4631462846B84701303FF456AE08F1B5
:1046300001080E9B013B4345F1DC534604F1500257
:10464000E0E64FF0000804F11A09F2E701234246C0
:10465000DFE701234A4631462846B84701303FF498
:104660003CAE08F10108E3680F995B1A4345F0DCA2
:10467000FDE64FF0000804F11909F4E72DE9F047D1
:10468000164699468A680B6907469342B8BF134697
:10469000336091F843200C46DDF820800AB10133E5
:1046A00033602368990642BF33680233336025685C
:1046B00015F0060506D104F1190AE36832689B1A61
:1046C000AB4228DC94F84320131E226818BF012354
:1046D00092062DD44946384604F14302C0470130C2
:1046E00020D02368E56803F00603042B18BF0025DB
:1046F00032684FF00006A36808BFAD1A226908BFF0
:1047000025EAE5759342C4BF9B1AED181A34B542E9
:104710001AD1002008E00123524649463846C047D6
:10472000013003D14FF0FF30BDE8F0870135C4E719
:104730003020E11881F843005A1C94F845102244B7
:10474000023382F84310C5E7012322464946384622
:10475000C0470130E6D00136D9E700002DE9FF4718
:104760000C46277E9146782F80469A460C9904F194
:10477000430207D8622F0AD8002F00F0D980582FA3
:1047800000F0A48004F1420684F842703AE0A7F1F8
:104790006303152BF6D801A050F823F0F547000865
:1047A0000948000885470008854700088547000834
:1047B0008547000809480008854700088547000824
:1047C0008547000885470008174900083948000850
:1047D000F94800088547000885470008394900085E
:1047E00085470008394800088547000885470008C4
:1047F000014900080B6804F142061A1D1B680A6093
:1048000084F842300123A4E0256808682E0600F1F0
:1048100004030AD505680B60002D03DA2D236D42D1
:1048200084F843300A235E4819E015F0400F05680C
:104830000B6018BF2DB2EFE70B682568181D0860E4
:10484000280601D51D6802E06906FBD51D886F2F7B
:104850000CBF08230A235248002184F843106668DD
:10486000002EA8BF2168A660A4BF21F0040121602A
:104870000DB9002E4DD01646B5FBF3F103FB1157D1
:10488000C75D06F8017D2F46BB420D46F4D9082BC3
:104890000BD12368DF0708D5236961689942DEBF21
:1048A000302306F8013C06F1FF36921B22614B468D
:1048B00021464046CDF800A003AAFFF7DFFE0130F5
:1048C0004CD14FF0FF3004B0BDE8F087344884F895
:1048D00045700E68236856F8045B1F060E6014D5F9
:1048E000D90744BF43F0200323601DB9236823F098
:1048F000200323601023AFE7236843F020032360E5
:104900007823284884F84530E3E75E0648BFADB217
:10491000E6E71646BBE70B6826681D1D60690D605B
:1049200035061B6801D5186002E07106FBD51880BA
:10493000002316462361BAE70B681A1D0A601E6839
:1049400000213046626802F045FB08B1801B6060C0
:1049500063682361002384F84330A8E73246494660
:1049600040462369D0470130ABD023689B0713D45E
:10497000E068039B9842B8BF1846A4E7012332467B
:1049800049464046D04701309BD00135E368039942
:104990005B1AAB42F2DCEBE7002504F11906F5E700
:1049A0002AC300083BC300082DE9F04F87B00393EA
:1049B0008B6817465A1EB2F5AE7F85BF6FF4AE7591
:1049C0005B190023029388BF40F25D138B464FF0C2
:1049D00000058CBF8B6002930B68804643F4F06344
:1049E0004BF81C3B0C465E46AA46A946CDE9045549
:1049F0000195A26852B13B681B784E2B64D8402BBE
:104A00003CD8A3F12B01C8B20E283AD9B9F1000F56
:104A100003D0236823F4807323600AF1FF3ABAF1CC
:104A2000010F00F213815E4500F205810125284641
:104A300007B0BDE8F08FA3F161020D2AE6D801A10D
:104A400051F822F0834B00080D4A00080D4A000877
:104A50000D4A0008E34B0008BB4B00080D4A000854
:104A60000D4A0008914B00080D4A00080D4A000845
:104A70000D4A00080D4A0008494B0008A3F1410205
:104A8000DBE70E29C2D801A050F821F03B4B00080B
:104A90000D4A00083B4B0008CF4B00080D4A0008A8
:104AA000E94A0008254B0008254B0008254B000863
:104AB000254B0008254B0008254B0008254B000816
:104AC000254B0008254B00086E2B09D8602BB2D867
:104AD000542B77D0592B99D1072D97D1082529E050
:104AE000742B6FD0792BF6E72168C8051AD5029B85
:104AF00021F08001216009F101091BB1013B013264
:104B00000293A260A368013BA36023690133236180
:104B10007B68013B002B7B6040F384803B68013362
:104B20003B6066E71AEB050F7FF470AF226822F452
:104B3000C072226006F8013BE4E7226810067FF5A8
:104B400065AF22F08002F4E7BAF1000F0ED1B9F19F
:104B5000000F0ED1226802F4E061B1F5E06F08D1D8
:104B600022F4F0624FF0010A2260E3E7BAF1020F8B
:104B700055D0012D02D0042D7FF448AF0135EDB2A0
:104B8000D8E7BAF1010F7FF441AF4FF0020AD1E745
:104B90007DB9B9F1000F7FF43CAF226802F4E06107
:104BA000B1F5E06F7FF439AF22F4F06201252260A5
:104BB000C0E7032DE2D0052DDEE7022D7FF426AFFE
:104BC0000325B7E7062D7FF421AF0725B2E722685A
:104BD00091057FF51BAF22F420722260CDF804907E
:104BE000A8E7226802F4A061B1F5806F06D05005F5
:104BF0007FF50CAFB9F1000F3FF40FAF910558BF2F
:104C0000019922F4F06258BFA9EB010142F4C0728D
:104C10004FF0000958BFCDE9041622608AE74FF033
:104C2000030A87E739464046D4F880319847002880
:104C30003FF4DFAEEAE6D4F87C313A46404616F857
:104C4000011D98472369013B2361ECE66B1E062B8F
:104C500025D8022D36D85E457FF6E8AED4F87C31F3
:104C60003A46404616F8011D98472369013B2361E7
:104C7000F1E70298D4F87C3110F8011D3A46029011
:104C8000404698472369013B23610AF1FF3A5FFAE6
:104C90008AFABAF1020FECD1033DEDB2761B23681C
:104CA000DA052FD55B0510D55E457FF6BFAED4F88B
:104CB0007C313A46404616F8011D98472369013B6E
:104CC0002361F1E7AA460296DFE716F8011C236983
:104CD000652903F1FF3306F1FF3523610CD0452927
:104CE0000AD0D4F87C313A4640469847236916F8F2
:104CF000021C013BB51E23613A464046D4F87C3184
:104D000098472E46256815F0100559D1357023684F
:104D100003F4C063B3F5806F1CD1019B4B45A3EB3B
:104D2000090224D100225946404600F0C5FED4F8BD
:104D300000C0039B1CF0020F06460F461B6821D0E3
:104D400003991A1D0A601B68C3E90067E368013311
:104D5000E3606CE6049B002BE4D005990A232A4605
:104D60004046013100F034FF049B059EC21A04F254
:104D70006F139E4228BF04F5B7763046114900F004
:104D80005DF8CFE71CF0040F03F1040E03D0039984
:104D9000C1F800E0D7E7039AC2F800E0D3F800803A
:104DA00002460B46FBF732FE28B1074800F00EF82A
:104DB000C8F80000CAE730463946FBF785FEF7E73A
:104DC000002534E64CC3000868C700080048704757
:104DD0000000C07F0CB430B5174B0C1E1D689DB091
:104DE00008DA8B234FF0FF302B601DB0BDE8304058
:104DF00002B070474FF40273ADF814300CBF234675
:104E000004F1FF33049307934FF6FF73029006906B
:104E1000ADF81630284621AB209A02A9019302F082
:104E2000BDFE431CBCBF8B232B60002CDDD00022B9
:104E3000029B1A70D9E700BF240000200EB46FF067
:104E4000004100B59CB01DAB029006900791049103
:104E50000848094953F8042B0591006802A90193F9
:104E600002F09CFE0022029B1A701CB05DF804EB5D
:104E700003B07047240000200802FFFF034611F82A
:104E8000012B03F8012B002AF9D170472DE9F041DD
:104E90000F46904602F02AFC04460D46B8F1000F7A
:104EA00011D0C7F30A53C3F16B03002B0BDD0024B1
:104EB0001B0503F17F5505F5401522462B46FBF7F0
:104EC0000BFB04460D4620462946BDE8F081000054
:104ED0002DE9F04F9B460023A1B01C93A14B8246C5
:104EE0001F680E4638461792FBF732F94FF000085C
:104EF00004464FF000091B961B9B1A782B2A4CD0B6
:104F00003AD80D2A33D8082A33D8002A3DD00023B6
:104F10000C931B9D2B78302B40F0AF806B7803F007
:104F2000DF03582B6CD10C9B504601931CAB0093B4
:104F30008D4ACDF808B01DAB1BA901F02FFD10F074
:104F40000706044605D0062E29D1002301351B95FE
:104F50000C93179B002B40F096850C9BD3B14246D7
:104F600009F100431046194621B0BDE8F08F202A10
:104F7000CDD101331B93BFE72D2AC8D101220C925A
:104F80005A1C1B925B78002BC3D1179B1B96002BDE
:104F900040F0778542464B46E4E70022EFE71C9A53
:104FA0003AB135211EA802F0A5FC50461C9902F02A
:104FB0006DF8013E052E07D8DFE806F00E0B181D30
:104FC0000E034FF00009C8462107C2D549F0004939
:104FD000BFE7DDE91E89F7E71D9ADDE91E8302F2CE
:104FE000334223F4801343EA0259EDE74FF00008FF
:104FF000DFF87891E8E76FF000494FF0FF38E3E71A
:105000001B9B5A1C1B925B78302BF9D0002BA0D035
:10501000012307931B9B0A22089300239B46CDE99B
:1050200005331B980578A5F13003D9B2092926D993
:105030002246394602F0C8FE002832D000202B4616
:105040005C4602460490652B01D0452B13D11CB958
:10505000079B034399D000241B9E731C1B937378FA
:105060002B2B78D02D2B7BD00027A3F130010929E1
:1050700040F282801B9600259EE00023C9E7BBF129
:10508000080FD5BF0699059902FB013302FB0133D6
:1050900000F10100D4BF069305930BF1010B1B90A7
:1050A000BFE71B9B1A191B921B5DBBF1000F36D08B
:1050B0005C460490A3F13002092A12D90122C2E70A
:1050C0001B9B01305A1C1B925B78302BF8D0A3F14C
:1050D0003102082A00F2DC840490002004461B9A66
:1050E0000892303B00F1010213D0049905191144D4
:1050F000049122460A21AA4213D12218082A04F157
:10510000010404441BDC0A22069902FB01330693C6
:1051100000221B9B1046591C1B915B78CAE758461E
:10512000D3E7082A04DC069F4F4306970132E2E7E3
:10513000571C102FDEBF059F4F430597F6E7102C35
:10514000DFBF0A22059902FB01330593E0E7002344
:10515000012204937CE70027B31C1B93B37884E7F8
:105160000127F9E7A8C5000854C300080000F07F34
:105170001B9B591C1B915B78302BF9D0A3F131019B
:1051800008293FF678AF4FF00A0EA3F1300C1B9BB5
:1051900009931B9B591C1B915B78A3F13005092DCA
:1051A00035D9099D491B082944F61F6502DC654570
:1051B000A8BF654607B16D42002C4CD10799014349
:1051C0007FF4C7AE002A7FF4E0AE692B26D023DC43
:1051D000492B23D04E2B7FF4D8AE9C491BA801F05D
:1051E0002BFE00283FF4D1AE1B9B1B78282B2CD123
:1051F00097491EAA1BA801F033FE052825D11F9B45
:10520000DDF8788043F0FF4949F4E009A1E60EFBA0
:105210000C3CACF1300CBCE76E2BDCE78D491BA8D5
:1052200001F00AFE00283FF4B0AE1B9B8A49013B07
:105230001BA81B9301F000FE10B91B9B01331B93AD
:105240004FF00008DFF8209283E6844802F0A6FDC4
:10525000804689467DE6049BBBF1000F08BFA3464C
:10526000EB1A102C069826460793A8BF1026FBF7CA
:10527000B9F8092C8046894613DD794B03EBC60348
:1052800053E91223FBF728F9804605988946FBF776
:10529000A9F802460B4640464946FAF767FF8046A2
:1052A00089460F2C36DC079B002B3FF452AE22DDE3
:1052B000162B09DC6A4C424604EBC3044B46D4E986
:1052C0000001FBF709F9C3E7079AC4F125039342EC
:1052D00020DB634DC4F10F0405EBC4014246D1E964
:1052E00000014B46FBF7F8F8079B1C1B05EBC405B8
:1052F000D5E90023E5E7079B16330BDB049B584AEF
:105300005D1B02EBC5054046D5E900234946FBF786
:105310000DFA9DE7079BA61B1E44002E71DD16F0BB
:105320000F030AD04E49424601EBC301D1E9000107
:105330004B46FBF7D1F88046894636F00F0650D031
:10534000B6F59A7F27DD4FF0000BCDF810B0CDF801
:1053500020B0CDF818B022234FF00008DFF80891F4
:10536000CAF80030089B002B3FF4F3AD50461C995F
:1053700001F08CFE5046069901F088FE50460499D3
:1053800001F084FE5046089901F080FE59465046CF
:1053900001F07CFEDDE50023404649461F463611FC
:1053A000012E21DC0BB1804689462E4BA9F15479A0
:1053B00003EBC7074246D7E900014B46FBF78CF8E1
:1053C000294B0A460B40294980468B42BBD8A1F5A0
:1053D00080118B4286BF4FF0FF38DFF8949002F1C6
:1053E0005479002305937EE0F20707D51D4B03EBAC
:1053F000C703D3E90023FBF76FF8012301377610C9
:10540000CEE7EED0764216F00F020AD0144B40469B
:1054100003EBC2034946D3E90023FBF787F9804633
:1054200089463611DDD01F2E24DD4FF0000BCDF85C
:1054300010B0CDF820B0CDF818B022234FF00008FE
:105440004FF00009CAF800308CE700BF25C3000800
:1054500068C300081DC30008ACC4000868C7000882
:1054600048C6000820C600080000F07F0000A07CAD
:10547000FFFFEF7F16F0100318BF6A234046059325
:1054800049460023B24FF20704D5D7E90023FBF7C2
:1054900023F80123761007F10807F4D10BB18046F9
:1054A0008946059BBBB1C9F30A53C3F16B03002BBB
:1054B000494610DD1F2B40F32B81342BD8BF4FF012
:1054C000FF324FF00008CFBF4FF05C79203B02FA6B
:1054D00003F303EA01090022002340464946FBF793
:1054E00063FA0028A1D1069B5A46009350462346F2
:1054F000089901F037FE089000283FF424AF049B80
:105500004FF0000B5D1B079BCDF810B0002BB4BF14
:105510002B4600230E93079B23EAE3731693089B05
:105520005046596801F072FD069000283FF413AF11
:10553000089B0C301A6903F10C010232920001F051
:1055400057FD1EAB01931DAB009342464B465046A0
:10555000CDE90A8902F044F91C9000283FF4FBAE23
:105560000121504601F096FE0346049000283FF4C6
:10557000F2AE1D9D1E9A002DABBF0E9B169BEE1822
:105580005C1B059BA8BF169CA5EB03051544714B3E
:1055900005F1FF35B8BF0E9E9D42C2F1360280F282
:1055A000C9805B1B1F2B4FF00107A2EB030200F326
:1055B000B680002507FA03F30F93B718059BBE4288
:1055C00014441C443346A8BF3B46A342A8BF23460D
:1055D000002BC2BFFF1AE41AF61A0E9B002B17DD30
:1055E0001A465046049901F00FFF049000283FF43A
:1055F000B2AE01461C9A504601F062FE09900028A6
:105600003FF4A9AE50461C9901F040FD099B1C9344
:10561000002F00F39380079B002B08DD5046169A5D
:10562000069901F0F1FE069000283FF494AE002C9C
:1056300008DD22465046069901F040FF06900028FA
:105640003FF489AE002E08DD32465046049901F041
:1056500035FF049000283FF47EAE5046069A1C9910
:1056600001F0B4FF834600283FF475AE0024C36800
:105670000499C4600D9301F08DFFA04270DA0D9B78
:1056800053EA080340F09680C9F31303002B40F05F
:10569000918029F000431B0D1B05B3F1D66F40F23A
:1056A0008980DBF8143023B9DBF81030012B40F38C
:1056B000818059460122504601F000FF049983463B
:1056C00001F068FF002875DD05994B46224A002944
:1056D00000F0918002EA0901B1F1D66F00F38B80EE
:1056E000B1F15C7F7FF7A9AE00231C4A4046CDE9AB
:1056F00014324946DDE91423FAF7EEFE0B46034364
:1057000008BF22238046894608BFCAF800302DE62C
:105710004FF0FF3202FA03F303EA0808DBE6C5F1B3
:105720007F4505F57F0505F57B45E23507FA05F56B
:105730000F9742E7012300250F933EE73A46504674
:105740001C9901F0BBFE1C9000287FF464AF02E6B8
:1057500080C3000802FCFFFF0000F07F000050390A
:10576000CDF8249066D10D9AC9F313035AB39C4A1D
:1057700093422CD1059B404603B34B46994A4FF0C8
:10578000FF311A40B2F1D46F1BD8120DC2F16B0376
:1057900001FA03F398421AD1934B099A9A4202D123
:1057A00001303FF4D8AD4FF000088E4B099A1A40F3
:1057B00002F58019059B002B96D1D7E54FF0FF33FA
:1057C000E8E70B46E6E753EA08033FF47DAFE5B1AF
:1057D000099B1D42EED00D9B40464946059AC3B138
:1057E000FFF754FB02460B46DDE90A01FAF7BEFC5F
:1057F00080468946DEE71340A3F580136FEA13590C
:105800004FF0FF386FEA0959D4E70F9B13EA080FEE
:10581000E0E7FFF73BFB02460B46DDE90A01FAF73A
:10582000A3FC0022002380468946FBF7BDF8002830
:10583000C0D002E65846049902F02EF800224FF03C
:10584000804306460F46FBF7C3F8002875D00D9B32
:10585000002B47D00026654F644D099B23F0004381
:105860001B0D1B050F930F9A614B9A4240F0C880A5
:10587000DDE90A23CDE91423099B4046A3F15479BD
:10588000494601F033FF02460B4630463946FAF7E7
:1058900023FE42464B46FAF769FC0B465149554AEE
:1058A0001940914280465ED90B9B02F1547293429B
:1058B00003D10A9B01333FF44EAD4FF0FF38DFF8C0
:1058C000289150461C9901F0E1FB5046069901F0E1
:1058D000DDFB5046049901F0D9FB5946504601F0D2
:1058E000D5FB1CE6B8F1000F19D1099BC3F31303D4
:1058F000E3B90022304639463C4BFBF75FF8C8B9A4
:105900000022304639463C4BFAF7E6FD04460D4688
:1059100005F1004318941993DDE918679DE7B8F184
:10592000010F03D1099B002B3FF487AD0026002413
:10593000324F91E70D9C304DEAE72F4B0022304665
:105940003946FAF7C9FD0D9B04460D4633B901F1FE
:10595000004310901193DDE910677EE702460B4685
:10596000CDE91023F7E703F15479059B002BA8D16B
:1059700029F000430F9A1B0D1B059A42A1D1204626
:105980002946FBF79FFBFAF779FD02460B462046B6
:105990002946FAF7E9FB0D9AC9F3130343EA080312
:1059A000134304460D4666D009A3D3E90023FBF751
:1059B00005F800287FF4DAAC07A3D3E900232046DA
:1059C0002946FBF719F800283FF47BAFCEE400BF6F
:1059D0009535A094FFFFDF3F35E5AF350000E03F90
:1059E000FFFF0F000000F07FFFFFEF7F0000F03FA0
:1059F0000000E07FFFFF9F7C0000E03F0000F0BF61
:105A0000059B13B30F9BB3F1D46F1ED826A3D3E924
:105A1000002320462946FAF7DBFF90B129462046AD
:105A2000FBF732F8012838BF0120FAF7DBFC0D9BA9
:105A300004460D46D3B901F1004312901393DDE9FA
:105A400012670F9A07F1D6639F1ADDE90A0101F088
:105A50004DFE02460B4630463946FAF73DFDDDE97C
:105A60000A23FAF783FB804689467EE702460B4607
:105A7000CDE91223E3E70EA3D3E90023FAF79EFF53
:105A8000A1E700230C931B9B179A1360FFF765BADD
:105A9000652B3FF45CAB452B3FF459AB0122FFF77C
:105AA0008DBB00BFAFF300800000C0FFFFFFDF41F0
:105AB0009535A094FFFFCF3F014BFFF709BA00BF18
:105AC0008C000020012B2DE9F047864601D0242BC5
:105AD00006D9FEF7D7FA162303600020BDE8F08749
